:100000000C942A000C9434000C9434000C943400AA
:100010000C9434000C9434000C9434000C94340090
:100020000C9434000C9434000C9434000C94340080
:100030000C9434000C9434000C9434000C94340070
:100040000C9434000C9434000C9434000C94340060
:100050000C94340011241FBECFE5D8E0DEBFCDBF25
:100060000E94F4020C9469030C94000080E008954F
:100070000F931F93CF93DF9300D000D000D0CDB764
:10008000DEB78C010E94430326E330E047E350E0F3
:1000900068E370E0CE0101960E943B0386E0FE011A
:1000A0003196D80101900D928A95E1F726960FB608
:1000B000F894DEBF0FBECDBFDF91CF911F910F919E
:1000C0000895CF93DF9300D000D0CDB7DEB77C0189
:1000D000D42E611105C062E070E00E94440304C0A8
:1000E00067E070E00E94440387E0898386E08A83AA
:1000F00085E08B8384E08C8307E0E1E0F0E0EC0FA7
:10010000FD1FE00FF11D1081612F8D2D0E94360023
:10011000882331F0612F70E0C7010E94440305C0BD
:10012000612F70E0C7010E9452030150E6CF25E025
:100130002A95F1F74CE260E00E94610026E0FB01A5
:10014000DC01119601900D922A95E1F70895CF9365
:10015000DF9300D000D000D0CDB7DEB726E0FC01A1
:100160003196DE01119601900D922A95E1F72981D1
:100170003A814B815C816D817E8180E090E02696A2
:100180000FB6F894DEBF0FBECDBFDF91CF910895BB
:100190000F931F93CF93DF93CDB7DEB72C970FB696
:1001A000F894DEBF0FBECDBF8C010E94A7002F8345
:1001B000388749875A876B877C87CE0107960E94CC
:1001C0006503FC0190819F609083C8010E94A70095
:1001D00029833A834B835C836D837E83CE010196B2
:1001E0000E946103FC01208120832C960FB6F894B5
:1001F000DEBF0FBECDBFDF91CF911F910F9108954C
:100200000F931F93CF93DF93EC018B0101960E9414
:100210004303B801CE010E949E001882CE010E94C5
:10022000C800DF91CF911F910F910895FC01608369
:1002300008950F931F93CF93DF93CDB7DEB7C857C1
:10024000D1090FB6F894DEBF0FBECDBF8C01FC0103
:100250008081833308F070C0C8010E94A700E49633
:100260002FAFE497E5963FAFE597E6964FAFE69759
:10027000E7965FAFE797E8966FAFE897E9967FAFAD
:10028000E99764E070E0CE018D589F4F0E945203C1
:10029000C8010E94A700AE962FAFAE97AF963FAFB2
:1002A000AF97E0964FAFE097E1965FAFE197E296A8
:1002B0006FAFE297E3967FAFE39765E070E0CE0122
:1002C00083599F4F0E945203C8010E94A700A8961D
:1002D0002FAFA897A9963FAFA997AA964FAFAA9715
:1002E000AB965FAFAB97AC966FAFAC97AD967FAF69
:1002F000AD9766E070E0CE0189599F4F0E9452038E
:10030000C8010E94A700A2962FAFA297A3963FAF65
:10031000A397A4964FAFA497A5965FAFA597A6966F
:100320006FAFA697A7967FAFA79767E070E0CE0163
:100330008F599F4F0E945203F8018081835383336A
:1003400008F070C0C8010E94A7006C962FAF6C9790
:100350006D963FAF6D976E964FAF6E976F965FAF8E
:100360006F97A0966FAFA097A1967FAFA19764E01B
:1003700070E0CE01855A9F4F0E944403C8010E943D
:10038000A70066962FAF669767963FAF6797689608
:100390004FAF689769965FAF69976A966FAF6A9734
:1003A0006B967FAF6B9765E070E0CE018B5A9F4FE5
:1003B0000E945203C8010E94A70060962FAF609769
:1003C00061963FAF619762964FAF629763965FAF5A
:1003D000639764966FAF649765967FAF659766E0A5
:1003E00070E0CE01815B9F4F0E945203C8010E94C2
:1003F000A7002A962FAF2A972B963FAF2B972C96C4
:100400004FAF2C972D965FAF2D972E966FAF2E97EF
:100410002F967FAF2F9767E070E0CE01875B9F4FED
:100420000E945203F80180818656833308F04FC042
:10043000C8010E94A70024962FAF249725963FAFAE
:10044000259726964FAF269727965FAF2797289632
:100450006FAF289729967FAF299764E070E0CE01AF
:100460008D5B9F4F0E944403C8010E94A7002DAFDF
:100470003EAF4FAF21965FAF219722966FAF229785
:1004800023967FAF239765E070E0CE01CD960E9462
:100490004403C8010E94A7002FAB38AF49AF5AAF41
:1004A0006BAF7CAF66E070E0CE01C7960E9452034E
:1004B000C8010E94A70029AB3AAB4BAB5CAB6DAB5C
:1004C0007EAB67E070E0CE01C1960E945203F80156
:1004D000808189598333E0F5C8010E94A7002BA7CA
:1004E0003CA74DA75EA76FA778AB64E070E0CE0194
:1004F0008B960E944403C8010E94A7002DA33EA32F
:100500004FA358A769A77AA765E070E0CE0185964A
:100510000E944403C8010E94A7002F8F38A349A35B
:100520005AA36BA37CA366E070E0CE014F960E94B5
:100530004403C8010E94A700298F3A8F4B8F5C8F1C
:100540006D8F7E8F67E070E0CE0149960E94520366
:10055000F80180818C3CE0F1C8010E94A7002B8B40
:100560003C8B4D8B5E8B6F8B788F64E070E0CE019F
:1005700043960E944403C8010E94A7002D873E872E
:100580004F87588B698B7A8B65E070E0CE010D96B2
:100590000E944403C8010E94A7002F83388749871F
:1005A0005A876B877C8766E070E0CE0107960E94D1
:1005B0004403C8010E94A70029833A834B835C83CC
:1005C0006D837E8367E070E0CE0101960E94440354
:1005D000C858DF4F0FB6F894DEBF0FBECDBFDF9116
:1005E000CF911F910F910895CF93DF93CDB7DEB7D1
:1005F00063970FB6F894DEBF0FBECDBF29E330E09E
:100600004AE350E06BE370E0CE0101960E943B03A9
:10061000BE016F5F7F4FCE0107960E940001CE01A1
:100620000E960E943800CE010E960E94970060E060
:10063000CE0107960E941601CE0107960E9419016D
:1006400087EA91E60197F1F700C0000011E0612F01
:10065000CE0107960E941601CE0107960E9419014D
:100660001F5F87EA91E60197F1F700C000001F3F86
:1006700071F710E0ECCFFC017183608353834283F8
:100680003583248308950895DC01ED91FC91208148
:1006900081E090E002C0880F991F6A95E2F7822BF3
:1006A00080830895DC01ED91FC91208181E090E050
:1006B00002C0880F991F6A95E2F780958223808394
:1006C0000895FC01808191810895FC0182819381CC
:0606D0000895F894FFCF2D
:00000001FF
