:100000000C942A000C9434000C9434000C943400AA
:100010000C9434000C9434000C9434000C94340090
:100020000C9434000C9434000C9434000C94340080
:100030000C9434000C9434000C9434000C94340070
:100040000C9434000C9434000C9434000C94340060
:100050000C94340011241FBECFE5D8E0DEBFCDBF25
:100060000E9440030C94B5030C94000080E00895B6
:100070000F931F93CF93DF9300D000D000D0CDB764
:10008000DEB78C010E948F0326E330E047E350E0A7
:1000900068E370E0CE0101960E94870386E0FE01CE
:1000A0003196D80101900D928A95E1F7C8010E941E
:1000B000B103FC0120812FEF208326960FB6F89420
:1000C000DEBF0FBECDBFDF91CF911F910F9108957D
:1000D000CF93DF93CDB7DEB728970FB6F894DEBF86
:1000E0000FBECDBF082F192FF42E611105C062E09D
:1000F00070E00E94900304C067E070E00E949003EB
:1001000087E0898386E08A8385E08B8384E08C8323
:100110006E0189E0C80ED11CFE0131965F01F60127
:10012000E2906F016E2D8F2D0E943600882339F0EA
:100130006E2D70E0802F912F0E94900306C06E2DCF
:1001400070E0802F912F0E949E03CA14DB0439F7C0
:10015000D02EE12E63E070E0802F912F0E9490035B
:10016000F0E1FA95F1F700C063E070E0802F912F85
:100170000E949E0380E18A95F1F700C087E08D839D
:1001800086E08E8385E08F8384E0888707E0E5E062
:10019000F0E0EC0FFD1FE00FF11D1081612F8F2D9E
:1001A0000E943600882339F0612F70E08D2D9E2D3E
:1001B0000E94900306C0612F70E08D2D9E2D0E943D
:1001C0009E030150E4CF25E02A95F1F743E060E07B
:1001D0000E94680026E0FB01DC01119601900D925F
:1001E0002A95E1F70895CF93DF9300D000D000D097
:1001F000CDB7DEB726E0FC013196DE011196019005
:100200000D922A95E1F729813A814B815C816D81BC
:100210007E8180E090E026960FB6F894DEBF0FBE98
:10022000CDBFDF91CF9108950F931F93CF93DF93AD
:10023000CDB7DEB72C970FB6F894DEBF0FBECDBF9B
:100240008C010E94F3002F83388749875A876B8778
:100250007C87CE0107960E94B103FC0190819F60CC
:100260009083C8010E94F30029833A834B835C8307
:100270006D837E83CE0101960E94AD03FC01208137
:1002800020832C960FB6F894DEBF0FBECDBFDF9152
:10029000CF911F910F9108950F931F93CF93DF93E9
:1002A000EC018B0101960E948F03B801CE010E94E0
:1002B000EA001882CE010E941401DF91CF911F91B4
:1002C0000F910895FC01608308950F931F93CF93BE
:1002D000DF93CDB7DEB7C857D1090FB6F894DEBFAC
:1002E0000FBECDBF8C01FC018081833308F070C04C
:1002F000C8010E94F300E4962FAFE497E5963FAF64
:10030000E597E6964FAFE697E7965FAFE797E896F3
:100310006FAFE897E9967FAFE99764E070E0CE01B0
:100320008D589F4F0E949E03C8010E94F300AE9615
:100330002FAFAE97AF963FAFAF97E0964FAFE09736
:10034000E1965FAFE197E2966FAFE297E3967FAFFA
:10035000E39765E070E0CE0183599F4F0E949E03B2
:10036000C8010E94F300A8962FAFA897A9963FAFA7
:10037000A997AA964FAFAA97AB965FAFAB97AC96EB
:100380006FAFAC97AD967FAFAD9766E070E0CE01F2
:1003900089599F4F0E949E03C8010E94F300A296B4
:1003A0002FAFA297A3963FAFA397A4964FAFA49762
:1003B000A5965FAFA597A6966FAFA697A7967FAFB6
:1003C000A79767E070E0CE018F599F4F0E949E0370
:1003D000F80180818353833308F070C0C8010E9404
:1003E000F3006C962FAF6C976D963FAF6D976E963E
:1003F0004FAF6E976F965FAF6F97A0966FAFA09756
:10040000A1967FAFA19764E070E0CE01855A9F4F1F
:100410000E949003C8010E94F30066962FAF669772
:1004200067963FAF679768964FAF689769965FAFDB
:1004300069976A966FAF6A976B967FAF6B9765E027
:1004400070E0CE018B5A9F4F0E949E03C8010E940C
:10045000F30060962FAF609761963FAF6197629609
:100460004FAF629763965FAF639764966FAF649781
:1004700065967FAF659766E070E0CE01815B9F4F28
:100480000E949E03C8010E94F3002A962FAF2A976C
:100490002B963FAF2B972C964FAF2C972D965FAF97
:1004A0002D972E966FAF2E972F967FAF2F9767E0E1
:1004B00070E0CE01875B9F4F0E949E03F801808110
:1004C0008656833308F04FC0C8010E94F30024967B
:1004D0002FAF249725963FAF259726964FAF2697A7
:1004E00027965FAF279728966FAF289729967FAFFB
:1004F000299764E070E0CE018D5B9F4F0E949003CE
:10050000C8010E94F3002DAF3EAF4FAF21965FAF01
:10051000219722966FAF229723967FAF239765E0AE
:1005200070E0CE01CD960E949003C8010E94F300B6
:100530002FAB38AF49AF5AAF6BAF7CAF66E070E01E
:10054000CE01C7960E949E03C8010E94F30029AB0A
:100550003AAB4BAB5CAB6DAB7EAB67E070E0CE0112
:10056000C1960E949E03F801808189598333E0F58A
:10057000C8010E94F3002BA73CA74DA75EA76FA759
:1005800078AB64E070E0CE018B960E949003C801C6
:100590000E94F3002DA33EA34FA358A769A77AA7F3
:1005A00065E070E0CE0185960E949003C8010E942C
:1005B000F3002F8F38A349A35AA36BA37CA366E053
:1005C00070E0CE014F960E949003C8010E94F30094
:1005D000298F3A8F4B8F5C8F6D8F7E8F67E070E035
:1005E000CE0149960E949E03F80180818C3CE0F187
:1005F000C8010E94F3002B8B3C8B4D8B5E8B6F8B65
:10060000788F64E070E0CE0143960E949003C801A9
:100610000E94F3002D873E874F87588B698B7A8B1A
:1006200065E070E0CE010D960E949003C8010E9423
:10063000F3002F83388749875A876B877C8766E06A
:1006400070E0CE0107960E949003C8010E94F3005B
:1006500029833A834B835C836D837E8367E070E0FC
:10066000CE0101960E949003C858DF4F0FB6F89450
:10067000DEBF0FBECDBFDF91CF911F910F910895C7
:10068000CF93DF93CDB7DEB763970FB6F894DEBF95
:100690000FBECDBF29E330E04AE350E06BE370E0EA
:1006A000CE0101960E948703BE016F5F7F4FCE018E
:1006B00007960E944C01CE010E960E943800CE0192
:1006C0000E960E94E30060E0CE0107960E94620150
:1006D000CE0107960E94650187EA91E60197F1F73E
:1006E00000C0000011E0612FCE0107960E94620158
:1006F000CE0107960E9465011F5F87EA91E6019788
:10070000F1F700C000001F3F71F710E0ECCFFC01D3
:1007100071836083538342833583248308950895CE
:10072000DC01ED91FC91208181E090E002C0880F16
:10073000991F6A95E2F7822B80830895DC01ED9181
:10074000FC91208181E090E002C0880F991F6A959A
:10075000E2F78095822380830895FC018081918156
:0E0760000895FC01828193810895F894FFCFE3
:00000001FF
